:1000000045C0000060C000005EC000005CC0000091
:100010005AC0000058C0000056C0000054C0000084
:1000200052C0000050C000004EC000004CC0000094
:100030004AC0000048C0000046C0000044C00000A4
:1000400042C0000040C000003EC000003CC00000B4
:100050003AC0000038C0000036C0000034C00000C4
:1000600032C0000030C000002EC000002CC00000D4
:100070002AC0000028C0000026C0000024C00000E4
:1000800022C0000020C000001EC0000011241FBEBE
:10009000CFEFD0E1DEBFCDBF11E0A0E0B1E0EAE9F3
:1000A000FCE000E00BBF02C007900D92A433B10743
:1000B000D9F721E0A4E3B1E001C01D92A734B20753
:1000C000E1F76DD3E8C59CCFE1E6F0E08081826086
:1000D00080830895E1E6F0E080818D7F808308953C
:1000E000E1E6F0E08081816080830895E2E6F0E05F
:1000F0008081826080830895E2E6F0E080818D7FD8
:100100008083089580B18695817090E00895E2E63D
:10011000F0E08081816080830895E2E6F0E08081F4
:100120008E7F8083089518BA98B3916098BB83B985
:1001300088B3846088BB85E991E00197F1F700C03E
:1001400088B38B7F88BB85E991E00197F1F700C008
:100150000895CF93DF93EC0102C0E5DF21968881FB
:100160008111FBCFDF91CF91089518BA83B988B37D
:10017000846088BB85E991E00197F1F700C088B3FE
:100180008B7F88BB85E991E00197F1F700C0089566
:100190008FEF82B913B887E087BB18BA85E991E081
:1001A0000197F1F700C088B38B7F88BB85E991E0A8
:1001B0000197F1F700C088E3D8DF8BE293E0019765
:1001C000F1F78FE0D2DF8BE293E00197F1F782E065
:1001D000CCDF89E991E80197F1F700C081E0C5DF44
:1001E00089E991E80197F1F700C086E0BEDF8BE274
:1001F00093E00197F1F7089579DF8FDF00000000A9
:1002000086DF0000000078DF0000000086DF0000CD
:1002100000007DDF0000000069DF000000007DCFEE
:100220000895CF9363DF79DFC0E003C070DF75DF2F
:10023000CF5FC930D8F3E0DFCF91089545DF50DFBD
:10024000F0CF0895CF93DF93D82F3EDFC0E80BC0E7
:100250008C2F8D2311F04ADF01C04EDF58DF0000E4
:1002600000005BDFC695C111F3CF40DF33DF000034
:1002700000004DDF47DFC82F50DF26DF8C2FDF91D6
:10028000CF9108951F93CF93DF93182F23DF2EDF95
:1002900000000000D0E0C0E80BC039DF0000000023
:1002A00031DF892B09F0DC2B38DF00000000C69518
:1002B000C111F3CF09DF112311F01EDF01C016DFDA
:1002C00026DF0000000029DF000000000FDF8D2F77
:1002D000DF91CF911F910895CF92DF92EF92FF921D
:1002E0000F931F93CF93DF936C017B01C42F84DFA7
:1002F000CC2319F0C13031F00AC083E0A3DFC82F4E
:10030000D0E007C085E09EDFC82FD0E002C0C0E08B
:10031000D0E0209711F08C2F19C0DCDEF3DE892BA2
:10032000E9F7D8DE81E0AEDF082F10E081E0AADF38
:10033000102F0027080F111DF6011183008380E0A4
:10034000A1DF90E0F701918380838C2FDF91CF9123
:100350001F910F91FF90EF90DF90CF9008954F92F3
:100360005F926F927F928F929F92AF92BF92CF9245
:10037000DF92EF92FF92CF93DF9300D000D0CDB702
:10038000DEB75B01BC0180E090E05DD36B017C01D6
:10039000B50180E090E057D32AE037ED43E25CE31B
:1003A00008D420E030E040E252E450D220E030E0D7
:1003B00040EA50E44BD24B015C0122EA37EE4BE3BA
:1003C00056EBC701B601F5D39B01AC01C701B601DD
:1003D000F0D32B013C0124E533EE45E25DE3C70198
:1003E000B601E7D39B01AC01C301B20130D220E0DA
:1003F00030E040E850E42AD269837A838B839C837F
:1004000020E030E048EC51E4C501B4011FD22B01DB
:100410003C012CEA35EC47EA58E3C701B601C9D3E1
:100420002AE037ED43E25CE312D29B01AC01C30149
:10043000B201BFD39B01AC0169817A818B819C8120
:1004400006D26B017C0120E030E048EC52E4ADD3F1
:10045000181644F40F2EC12CD12CF8ECEF2EF2E438
:10046000FF2EF02D2DEC3CEC4CEC5DE3C701B6010A
:1004700052D288234CF40F2EFDECCF2EFCECDF2E55
:10048000ED2CFDE3FF2EF02D20E030E040E251E4C2
:10049000C501B4018ED3ABD270933D0160933C0192
:1004A00020E030E040E251E4C701B60182D39FD2A0
:1004B00070933F0160933E010F900F900F900F904B
:1004C000DF91CF91FF90EF90DF90CF90BF90AF90F2
:1004D0009F908F907F906F905F904F900895809342
:1004E0004401109243011092420141E065E471E041
:1004F0008AE391E0F1DE2091420130914301280F1F
:10050000311D309343012093420140E065E471E0E6
:1005100080E491E0E1DE2091420130914301A901A4
:10052000480F511DCA015093430140934201892B4A
:1005300011F077DE09C06091400170914101809116
:100540003A0190913B010BDF80914401813029F405
:1005500080913E0190913F010895811105C08091E5
:100560003C0190913D01089580E090E008958F92C4
:100570009F92AF92BF92CF92DF92EF92FF926B0168
:100580007C01CA01B90120E030E048EC52E4C7D157
:100590009B01AC0160E070E080E89FE357D12DEC57
:1005A0003CEC4CE05FE305D34B015C0126E636E60C
:1005B00046EE5FE3C701B601FCD26B017C0120E08F
:1005C00030E040ED51E442D19B01AC01C501B401E2
:1005D000F0D29B01AC01C701B60138D120E030E078
:1005E00040E052E434D1FF90EF90DF90CF90BF9085
:1005F000AF909F908F900895CF92DF92FF920F93CC
:100600001F93CF93DF93562FE82FF0E06F01D6941E
:10061000C794D694C7949601ABE7B4E12DD3EC010F
:10062000D695C795DE01AE5DBE4F8C9101E111E01C
:10063000D80112968C930F2EF4E6FF2EF02DFC9E1F
:10064000C001FD9E900D1124E81BF90B9F01ADEC3C
:10065000BCEC12D3EC01D695C795D695C795D69527
:10066000C795DE01AE5DBE4F8C91D80113968C9379
:10067000CE01880F991FCC0FDD1FCC0FDD1FCC0FD3
:10068000DD1FC80FD91FEC1BFD0BEE5DFE4F8081F7
:10069000F8018583E52FF0E06F01D694C794D694D6
:1006A000C7949601ABE7B4E1E7D2EC01D695C795C4
:1006B000DE01AE5DBE4F8C91D8011A968C93FC9EE4
:1006C000C001FD9E900D1124E81BF90B9F01ADECBC
:1006D000BCECD2D2EC01D695C795D695C795D695E8
:1006E000C795DE01AE5DBE4F8C91D8011B968C93F1
:1006F000CE01880F991FCC0FDD1FCC0FDD1FCC0F53
:10070000DD1FC80FD91FEC1BFD0BEE5DFE4F808176
:10071000F801858750E08A0116950795169507958B
:100720009801ABE7B4E1A8D2FC01F695E795DF01AB
:10073000AE5DBE4F8C91C0E0D1E08987FE9EC001C6
:10074000FF9E900D1124481B590B9A01ADECBCEC97
:1007500093D2FC01F695E795F695E795F695E79522
:10076000DF01AE5DBE4F8C918A87CF01880F991F44
:10077000EE0FFF1FEE0FFF1FEE0FFF1FE80FF91F19
:100780004E1B5F0BFA01EE5DFE4F80818C87DF917F
:10079000CF911F910F91FF90DF90CF9008954EDD84
:1007A000F7DC81E0E2DC89E991E80197F1F700C02C
:1007B00080E095DE909339018093380181E08FDEEF
:1007C000809336019093370140913401682F8091D6
:1007D000380112DF80E8C9DC8BE293E00197F1F782
:1007E00081E191E0B6DC80ECC0DC8BE293E0019724
:1007F000F1F780E091E0ADDC609138017091390152
:1008000080E090E020D120E030E040E251E487D069
:100810006B017C01609136017091370180E090E0BE
:1008200012D120E030E040E251E479D09B01AC01EC
:10083000C701B6019CDE20E030E040E251E4B9D1CE
:10084000D6D07093350160933401B2CF5058BB2796
:10085000AA270ED070C161D130F066D120F031F4FA
:100860009F3F11F41EF456C10EF4E095E7FB4CC116
:10087000E92F72D180F3BA176207730784079507CF
:1008800018F071F49EF58AC10EF4E0950B2EBA2F84
:10089000A02D0B01B90190010C01CA01A001112486
:1008A000FF27591B99F0593F50F4503E68F11A1632
:1008B000F040A22F232F342F4427585FF3CF4695C3
:1008C00037952795A795F0405395C9F77EF41F16E5
:1008D000BA0B620B730B840BBAF09150A1F0FF0FAF
:1008E000BB1F661F771F881FC2F70EC0BA0F621F9B
:1008F000731F841F48F4879577956795B795F7958B
:100900009E3F08F0B3CF9395880F08F09927EE0F1C
:10091000979587950895D4D008F481E008950CD078
:100920000AC102D140F0F9D030F021F45F3F19F054
:10093000EBC0511134C1EEC00FD198F39923C9F324
:100940005523B1F3951B550BBB27AA2762177307D5
:10095000840738F09F5F5F4F220F331F441FAA1F89
:10096000A9F333D00E2E3AF0E0E830D09150504049
:10097000E695001CCAF729D0FE2F27D0660F771FF7
:10098000881FBB1F261737074807AB07B0E809F0D9
:10099000BB0B802DBF01FF2793585F4F2AF09E3F6E
:1009A000510568F0B1C0FBC05F3FECF3983EDCF34B
:1009B000869577956795B795F7959F5FC9F7880FE7
:1009C000911D9695879597F90895E1E0660F771F39
:1009D000881FBB1F621773078407BA0720F0621BCA
:1009E000730B840BBA0BEE1F88F7E0950895BCD00B
:1009F00088F09F5790F0B92F9927B751A0F0D1F008
:100A0000660F771F881F991F1AF0BA95C9F712C091
:100A1000B13081F0C3D0B1E00895C0C0672F782F06
:100A20008827B85F39F0B93FCCF3869577956795FD
:100A3000B395D9F73EF490958095709561957F4F69
:100A40008F4F9F4F0895E89409C097FB3EF490950F
:100A50008095709561957F4F8F4F9F4F9923A9F097
:100A6000F92F96E9BB279395F69587957795679526
:100A7000B795F111F8CFFAF4BB0F11F460FF1BC06A
:100A80006F5F7F4F8F4F9F4F16C0882311F096E9FD
:100A900011C0772321F09EE8872F762F05C06623AB
:100AA00071F096E8862F70E060E02AF09A95660F64
:100AB000771F881FDAF7880F9695879597F908951D
:100AC000990F0008550FAA0BE0E8FEEF161617065F
:100AD000E807F907C0F012161306E407F50798F0C7
:100AE000621B730B840B950B39F40A2661F0232BE0
:100AF000242B252B21F408950A2609F4A140A6955C
:100B00008FEF811D811D089597F99F6780E870E040
:100B100060E008959FEF80EC089500240A94161673
:100B2000170618060906089500240A9412161306DB
:100B3000140605060895092E0394000C11F4882369
:100B400052F0BB0F40F4BF2B11F460FF04C06F5F85
:100B50007F4F8F4F9F4F089557FD9058440F551F5B
:100B600059F05F3F71F04795880F97FB991F61F02F
:100B70009F3F79F087950895121613061406551FA6
:100B8000F2CF4695F1DF08C0161617061806991F12
:100B9000F1CF86957105610508940895E894BB2707
:100BA00066277727CB0197F908958ADF08F48FEF3E
:100BB00008950BD0C0CFB1DF28F0B6DF18F0952331
:100BC00009F0A2CFA7CF1124EACFC6DFA0F3959FEB
:100BD000D1F3950F50E0551F629FF001729FBB2724
:100BE000F00DB11D639FAA27F00DB11DAA1F649FD0
:100BF0006627B00DA11D661F829F2227B00DA11D83
:100C0000621F739FB00DA11D621F839FA00D611D08
:100C1000221F749F3327A00D611D231F849F600D29
:100C2000211D822F762F6A2F11249F5750408AF062
:100C3000E1F088234AF0EE0FFF1FBB1F661F771FEE
:100C4000881F91505040A9F79E3F510570F05CCF2E
:100C5000A6CF5F3FECF3983EDCF3869577956795DA
:100C6000B795F795E7959F5FC1F7FE2B880F911D0C
:100C70009695879597F90895A29FB001B39FC001FB
:100C8000A39F700D811D1124911DB29F700D811DB8
:0A0C90001124911D0895F894FFCF80
:100C9A002044496E6465783D2030302E3020202073
:100CAA0000543D30302E304320483D30302E302520
:100CBA0020003031323334353637383941424344F3
:040CCA00454620007B
:00000001FF
