:1000000045C0000060C000005EC000005CC0000091
:100010005AC0000058C0000056C0000054C0000084
:1000200052C0000050C000004EC000004CC0000094
:100030004AC0000048C0000046C0000044C00000A4
:1000400042C0000040C000003EC000003CC00000B4
:100050003AC0000038C0000036C0000034C00000C4
:1000600032C0000030C000002EC000002CC00000D4
:100070002AC0000028C0000026C0000024C00000E4
:1000800022C0000020C000001EC0000011241FBEBE
:10009000CFEFD0E1DEBFCDBF11E0A0E0B1E0E6E4FC
:1000A000F3E000E00BBF02C007900D92A233B1074E
:1000B000D9F721E0A2E3B1E001C01D92A633B20757
:1000C000E1F7CCD03EC19CCF80EF809361008FEDF3
:1000D000809362000895EF92FF920F931F93CF9346
:1000E000DF937B0108EE13E0B80104D1FB01EF5E62
:1000F000FE4F2081E0E0F1E02483C4E6D0E0BE01C1
:10010000F9D0DB01AF5EBE4F2C9125832AE030E0B1
:10011000B901F0D0DB01AF5EBE4F4C914683DC01EC
:10012000AF5EBE4F8C918783C701B801E3D0DB017E
:10013000AF5EBE4F4C914487BE01DCD0DB01AF5EA9
:10014000BE4F4C914587B901D5D0DB01AF5EBE4FA4
:100150002C912687DC01AF5EBE4F8C918787DF91A3
:10016000CF911F910F91FF90EF900895837087B901
:1001700083EC86B980E791E00197F1F700C086B182
:100180008823E9F384B195B1089518BA83B988B387
:10019000846088BB85E991E00197F1F700C088B3DE
:1001A0008B7F88BB85E991E00197F1F700C0089546
:1001B0008FEF82B913B887E087BB18BA85E991E061
:1001C0000197F1F700C088B38B7F88BB85E991E088
:1001D0000197F1F700C088E3D8DF8BE293E0019745
:1001E000F1F78FE0D2DF8BE293E00197F1F782E045
:1001F000CCDF89E991E80197F1F700C081E0C5DF24
:1002000089E991E80197F1F700C086E0BEDF8BE253
:1002100093E00197F1F7089518BA98B3916098BBED
:1002200083B988B3846088BB85E991E00197F1F7D1
:1002300000C088B38B7F88BB85E991E00197F1F717
:1002400000C00895CF93DF93EC0102C0E5DF219653
:1002500088818111FBCFDF91CF91089535DFA8DF31
:1002600081E093DF89E991E80197F1F700C080E828
:100270008CDF8BE293E00197F1F782E291E0E2DF1D
:1002800080EC83DF8BE293E00197F1F780E091E06F
:10029000D9DF9FEF2FE786E1915020408040E1F7C2
:1002A00000C00000609132017091330180913401EF
:1002B0009091350110DF80EC68DF8BE293E00197CD
:1002C000F1F780E091E0BEDF9FEF2FE786E19150EC
:1002D00020408040E1F700C0000080E047DF9093BD
:1002E00033018093320181E041DF909335018093A7
:1002F0003401D8CF97FB072E16F4009406D077FD73
:1003000008D00BD007FC05D03EF4909581959F4F07
:100310000895709561957F4F0895AA1BBB1B51E10D
:1003200007C0AA1FBB1FA617B70710F0A61BB70B65
:10033000881F991F5A95A9F780959095BC01CD010A
:060340000895F894FFCFC0
:100346004364533D303030302050743D30303030CF
:10035600003031323334353637383941424344453B
:10036600462020496F5420536D61727420535720E4
:02037600000085
:00000001FF
