:1000000045C0000060C000005EC000005CC0000091
:100010005AC0000058C0000056C0000054C0000084
:1000200052C0000050C000004EC000004CC0000094
:100030004AC0000048C0000046C0000044C00000A4
:1000400042C0000040C000003EC000003CC00000B4
:100050003AC0000038C0000036C0000034C00000C4
:1000600032C0000030C000002EC000002CC00000D4
:100070002AC0000028C0000026C0000024C00000E4
:1000800022C0000020C000001EC0000011241FBEBE
:10009000CFEFD0E1DEBFCDBF11E0A0E0B1E0EAE3F9
:1000A000FBE000E00BBF02C007900D92AA31B10740
:1000B000D9F721E0AAE1B1E001C01D92A733B20750
:1000C000E1F703D338C59CCFE1E6F0E080818260A0
:1000D00080830895E1E6F0E080818D7F808308953C
:1000E000E1E6F0E08081816080830895E2E6F0E05F
:1000F0008081826080830895E2E6F0E080818D7FD8
:100100008083089580B18695817090E00895E2E63D
:10011000F0E08081816080830895E2E6F0E08081F4
:100120008E7F80830895E2DFF8DF00000000EFDFBC
:1001300000000000E1DF00000000EFDF0000000031
:10014000E6DF00000000D2DF00000000E6CF0895E7
:10015000CF93CCDFE2DFC0E003C0D9DFDEDFCF5FCB
:10016000C930D8F3E0DFCF910895AEDFB9DFF0CF2B
:100170000895CF93DF93D82FA7DFC0E80BC08C2F53
:100180008D2311F0B3DF01C0B7DFC1DF0000000035
:10019000C4DFC695C111F3CFA9DF9CDF00000000CA
:1001A000B6DFB0DFC82FB9DF8FDF8C2FDF91CF91A3
:1001B00008951F93CF93DF93182F8CDF97DF0000F4
:1001C0000000D0E0C0E80BC0A2DF000000009ADF12
:1001D000892B09F0DC2BA1DF00000000C695C111BE
:1001E000F3CF72DF112311F087DF01C07FDF8FDFD4
:1001F0000000000092DF0000000078DF8D2FDF910B
:10020000CF911F910895CF92DF92EF92FF920F93BB
:100210001F93CF93DF936C017B01C42F84DFCC232A
:1002200019F0C13031F00AC083E0A3DFC82FD0E05D
:1002300007C085E09EDFC82FD0E002C0C0E0D0E05C
:10024000209711F08C2F19C045DF5CDF892BE9F76F
:1002500041DF81E0AEDF082F10E081E0AADF102F40
:100260000027080F111DF6011183008380E0A1DF34
:1002700090E0F701918380838C2FDF91CF911F91C4
:100280000F91FF90EF90DF90CF9008954F925F9283
:100290006F927F928F929F92AF92BF92CF92DF9296
:1002A000EF92FF92CF93DF9300D000D0CDB7DEB7AF
:1002B0005B01BC0180E090E002D36B017C01B501E1
:1002C00080E090E0FCD22AE037ED43E25CE3ADD37E
:1002D00020E030E040E252E45DD220E030E040EA4D
:1002E00050E458D24B015C0122EA37EE4BE356EB67
:1002F000C701B6019AD39B01AC01C701B60195D3E2
:100300002B013C0124E533EE45E25DE3C701B60174
:100310008CD39B01AC01C301B2013DD220E030E09F
:1003200040E850E437D269837A838B839C8320E052
:1003300030E048EC51E4C501B4012CD22B013C0162
:100340002CEA35EC47EA58E3C701B6016ED32AE040
:1003500037ED43E25CE31FD29B01AC01C301B20164
:1003600064D39B01AC0169817A818B819C8113D21A
:100370006B017C0120E030E048EC52E452D31816C7
:1003800044F40F2EC12CD12CF8ECEF2EF2E4FF2E0A
:10039000F02D2DEC3CEC4CEC5DE3C701B6015FD2D7
:1003A00088234CF40F2EFDECCF2EFCECDF2EED2C31
:1003B000FDE3FF2EF02D20E030E040E251E4C501E6
:1003C000B40133D350D270932B0160932A0120E003
:1003D00030E040E251E4C701B60127D344D2709324
:1003E0002D0160932C010F900F900F900F90DF91D3
:1003F000CF91FF90EF90DF90CF90BF90AF909F9004
:100400008F907F906F905F904F900895809333010D
:10041000109231011092300141E064E371E088E212
:1004200091E0F1DE2091300130913101280F311D32
:10043000309331012093300140E064E371E08EE2BB
:1004400091E0E1DE2091300130913101A901480FA6
:10045000511DCA015093310140933001892B11F095
:1004600077DE09C060912E0170912F0180912801E3
:10047000909129010BDF80913301813029F4809123
:100480002C0190912D010895811105C080912A01C0
:1004900090912B01089580E090E00895EF92FF92F3
:1004A0000F931F93CF93DF93462FE0911A01F091A2
:1004B0001B017F01F694E794F694E7949701ABE76C
:1004C000B4E12AD38C0116950795C2E2D1E00D83E1
:1004D0000F2EF4E6FF2EF02DF09EC001F19E900D40
:1004E0001124E81BF90B9F01ADECBCEC15D38C017A
:1004F0001695079516950795169507950C83C801CF
:10050000880F991F000F111F000F111F000F111FDF
:10051000080F191FE01BF10BEB8350E08A011695C1
:100520000795169507959801ABE7B4E1F5D2FC0164
:10053000F695E795EA83FE9EC001FF9E900D11247B
:10054000481B590B9A01ADECBCECE6D2FC01F695C8
:10055000E795F695E795F695E795E983CF01880F3E
:10056000991FEE0FFF1FEE0FFF1FEE0FFF1FE80F8B
:10057000F91F4E1B5F0B4883DF91CF911F910F91A5
:10058000FF90EF90089520E015C0822F90E0FC01CD
:10059000EE5FFE4F308132BBFC01EE5DFE4FE0812D
:1005A000F0E0E85FFE4F808185BB83E39BE201972B
:1005B000F1F72F5F263048F3089587B3806887BB33
:1005C00088B38F7788BB81E685BD14BC08954FEF53
:1005D0009C01429FC001439F900D11249C013695C0
:1005E000279536952795ABE7B4E196D296958795F2
:1005F000089589B38095809336018093320190915C
:100600002101891709F45BC08430E1F128F48130BD
:1006100049F0823051F14FC0883009F440C0803138
:10062000A1F049C080910001909101010196909341
:100630000101809300018E970CF43DC08DE290E0A3
:10064000909301018093000136C080910001909148
:1006500001010197909301018093000199235CF5BA
:10066000109201011092000126C080912001811199
:1006700005C080E590E0ABDF83BD1DC081E08093C5
:10068000200119C080912001811105C08AE590E008
:100690009EDF83BD10C081E0809320010CC080915B
:1006A0002001811105C084E690E091DF83BD03C085
:1006B00081E080932001809132018093210108958F
:1006C0008FEF81BB84BB1ABA08954FDDF9DF75DF68
:1006D00080911C0190911D01892B39F480E096DEF8
:1006E00090931B0180931A0144C083DF6091000145
:1006F00080911A01D3DE47DF20911A0130911B014E
:10070000ADECBCEC09D29695879596958795969514
:1007100087956091000170910101EAD124E6269F3E
:10072000C001279F900D112490931F0180931E01FB
:1007300085369105D4F486E490E049DF83BD80914D
:100740001E0190911F01813591059CF480E590E098
:100750003EDF83BD80911E0190911F01CD974CF427
:1007600084E690E034DF83BD04C080E090E02FDFBA
:1007700083BD80911C0190911D01019690931D01F4
:1007800080931C01C3970CF4A3CF10921D0110920B
:100790001C019ECF5058BB27AA270ED008C1F9D004
:1007A00030F0FED020F031F49F3F11F41EF4EEC083
:1007B0000EF4E095E7FBE4C0E92F0AD180F3BA1705
:1007C000620773078407950718F071F49EF522C13C
:1007D0000EF4E0950B2EBA2FA02D0B01B90190015C
:1007E0000C01CA01A0011124FF27591B99F0593FA0
:1007F00050F4503E68F11A16F040A22F232F342FE8
:100800004427585FF3CF469537952795A795F04035
:100810005395C9F77EF41F16BA0B620B730B840B4A
:10082000BAF09150A1F0FF0FBB1F661F771F881F02
:10083000C2F70EC0BA0F621F731F841F48F487955A
:1008400077956795B795F7959E3F08F0B3CF939549
:10085000880F08F09927EE0F9795879508956CD02B
:1008600008F481E00895BCD088F09F5790F0B92F2C
:100870009927B751A0F0D1F0660F771F881F991FF5
:100880001AF0BA95C9F712C0B13081F0C3D0B1E007
:100890000895C0C0672F782F8827B85F39F0B93F17
:1008A000CCF3869577956795B395D9F73EF49095F7
:1008B0008095709561957F4F8F4F9F4F0895E89475
:1008C00009C097FB3EF490958095709561957F4F98
:1008D0008F4F9F4F9923A9F0F92F96E9BB27939546
:1008E000F695879577956795B795F111F8CFFAF456
:1008F000BB0F11F460FF1BC06F5F7F4F8F4F9F4F87
:1009000016C0882311F096E911C0772321F09EE8E4
:10091000872F762F05C0662371F096E8862F70E04A
:1009200060E02AF09A95660F771F881FDAF7880F24
:100930009695879597F90895990F0008550FAA0B7A
:10094000E0E8FEEF16161706E807F907C0F01216E2
:100950001306E407F50798F0621B730B840B950BE5
:1009600039F40A2661F0232B242B252B21F408953A
:100970000A2609F4A140A6958FEF811D811D0895D7
:1009800097F99F6780E870E060E008959FEF80EC42
:10099000089500240A9416161706180609060895E5
:1009A00000240A9412161306140605060895092E4B
:1009B0000394000C11F4882352F0BB0F40F4BF2BBA
:1009C00011F460FF04C06F5F7F4F8F4F9F4F0895FA
:1009D00057FD9058440F551F59F05F3F71F04795F0
:1009E000880F97FB991F61F09F3F79F087950895D5
:1009F000121613061406551FF2CF4695F1DF08C0F4
:100A0000161617061806991FF1CF86957105610510
:100A100008940895E894BB2766277727CB0197F9B8
:100A200008958ADF08F48FEF08950BD0C0CFB1DFAF
:100A300028F0B6DF18F0952309F0A2CFA7CF112434
:100A4000EACFC6DFA0F3959FD1F3950F50E0551F75
:100A5000629FF001729FBB27F00DB11D639FAA2713
:100A6000F00DB11DAA1F649F6627B00DA11D661F62
:100A7000829F2227B00DA11D621F739FB00DA11D83
:100A8000621F839FA00D611D221F749F3327A00D3D
:100A9000611D231F849F600D211D822F762F6A2FD9
:100AA00011249F5750408AF0E1F088234AF0EE0F5E
:100AB000FF1FBB1F661F771F881F91505040A9F76B
:100AC0009E3F510570F05CCFA6CF5F3FECF3983EA0
:100AD000DCF3869577956795B795F795E7959F5FD2
:100AE000C1F7FE2B880F911D9695879597F908956C
:100AF000AA1BBB1B51E107C0AA1FBB1FA617B70744
:100B000010F0A61BB70B881F991F5A95A9F780955F
:100B10009095BC01CD010895A29FB001B39FC00183
:100B2000A39F700D811D1124911DB29F700D811D19
:0A0B30001124911D0895F894FFCFE1
:100B3A001400FEFDFBF7EFDF3F065B4F666D7D2776
:0A0B4A007F6F777C585E4049400041
:00000001FF
