:1000000045C0000060C000005EC000005CC0000091
:100010005AC0000058C0000056C0000054C0000084
:1000200052C0000050C000004EC000004CC0000094
:100030004AC0000048C0000046C0000044C00000A4
:1000400042C0000040C000003EC000003CC00000B4
:100050003AC0000038C0000036C0000034C00000C4
:1000600032C0000030C000002EC000002CC00000D4
:100070002AC0000028C0000026C0000024C00000E4
:1000800022C0000020C000001EC0000011241FBEBE
:10009000CFEFD0E1DEBFCDBF11E0A0E0B1E0E4E200
:1000A000F2E000E00BBF02C007900D92A231B10751
:1000B000D9F721E0A2E1B1E001C01D92A931B20758
:1000C000E1F787D0ADC09CCF8FEF87BB82B914BA60
:1000D00011BA089583B390E080959095982F882762
:1000E00020B330E020953095822B8038910509F4BB
:1000F00048C0C8F488309105E1F158F48230910588
:1001000009F453C08430910591F1019709F04BC077
:100110002CC08032910589F18034910581F140979E
:1001200009F041C028C0811528E0920791F160F4E0
:10013000811522E0920749F1811524E0920739F1F7
:100140008115914081F51FC0811520E2920729F1A8
:1001500020F481159041F9F026C0811520E4920722
:10016000F1F081159048E9F01EC080E0089582E02A
:10017000089583E0089584E0089585E0089586E079
:10018000089587E0089588E0089589E008958AE059
:1001900008958BE008958CE008958DE008958EE039
:1001A00008958FE0089580E1089581E00895E2E1E7
:1001B000F1E09DEC899F912D112496959695969549
:1001C0009183990F292F220F220F920F891B808371
:1001D00008957ADF7FDF80931801803138F0E2E103
:1001E000F1E08AE08183808380E017C0E0DFFCCF0C
:1001F000282F30E0F901E050FF4F908198BBF901C2
:10020000EE5EFE4FE081F0E0EA5FFE4F908193B931
:10021000E3E3FBE23197F1F78F5F823048F3DACF07
:04022000F894FFCF80
:10022400FEFDFBF7EFDF3F065B4F666D7D277F6FBB
:02023400400088
:00000001FF
