:1000000045C0000060C000005EC000005CC0000091
:100010005AC0000058C0000056C0000054C0000084
:1000200052C0000050C000004EC000004CC0000094
:100030004AC0000048C0000046C0000044C00000A4
:1000400042C0000040C000003EC000003CC00000B4
:100050003AC0000038C0000036C0000034C00000C4
:1000600032C0000030C000002EC000002CC00000D4
:100070002AC0000028C0000026C0000024C00000E4
:1000800022C0000020C000001EC0000011241FBEBE
:10009000CFEFD0E1DEBFCDBF11E0A0E0B1E0EAEBF1
:1000A000F2E000E00BBF02C007900D92AC31B10747
:1000B000D9F721E0ACE1B1E001C01D92A135B20752
:1000C000E1F7D5D0F8C09CCF837087B983EC86B9AF
:1000D00080E791E00197F1F700C0349BFECF84B137
:1000E00095B1089520911C01E22FF0E0EE0FFF1F63
:1000F000E95DFE4F918380832F5F20931C012431A3
:1001000010F010921C01089580E090E020E030E0B3
:100110000AC0FC01EE0FFF1FE95DFE4F40815181D7
:10012000240F351F0196843191059CF3ADECBCEC96
:10013000B3D0929582958F7089279F7089270895F3
:100140000F931F93CF93DF93AC01C1E2D1E088E01E
:100150008D8380E18C838A01169507951695079506
:10016000169507959801A5ECB0E296D0FC01F295A2
:10017000E295EF70EF27FF70EF27EB8328EE33E077
:10018000E29FC001E39F900DF29F900D1124481B48
:10019000590B8A0116950795169507959801ABE7B7
:1001A000B4E17AD0FC01F695E795EA8324E62E9F28
:1001B000C0012F9F900D1124481B590B9A01ADECE3
:1001C000BCEC6AD0FC01F695E795F695E795F695B7
:1001D000E795E983CF01880F991FEE0FFF1FEE0F00
:1001E000FF1FEE0FFF1FE80FF91F4E1B5F0B488329
:1001F000DF91CF911F910F910895209102013091CD
:1002000003014091000150910101B901640F751F74
:100210008617970710F415BA0895241B350B281775
:10022000390710F481E085BB089520E015C0822FC6
:1002300090E0FC01EC5FFE4F308138BBFC01EF5DCC
:10024000FE4FE081F0E0E65FFE4F808183B983E3FB
:100250009BE20197F1F72F5F263048F308958FEF67
:1002600087BB82B990EF9093610084BB0895F7DF5C
:1002700080E02ADF9093200180931F0133DF44DF69
:1002800090931E0180931D015BDFCFDF80911D01E4
:1002900090911E01B2DFECCFA29FB001B39FC001CD
:1002A000A39F700D811D1124911DB29F700D811DA2
:0A02B0001124911D0895F894FFCF6A
:1002BA0001001200FEFDFBF7EFDF3F065B4F666DA4
:0C02CA007D277F6F777C585E4049400024
:00000001FF
