S01B00004D4F544F525F53504545445F434F4E54524F4C2E7372656328
S113000045C000004BC0000049C0000047C00000CC
S113001045C0000043C0000041C000003FC00000D4
S11300203DC000003BC0000039C0000037C00000E4
S113003035C0000033C0000031C000002FC00000F4
S11300402DC000002BC0000029C0000027C0000004
S113005025C0000023C0000021C000001FC0000014
S11300601DC000001BC0000019C0000017C0000024
S113007015C0000013C0000011C000000FC0000034
S11300800DC000000BC0000009C0000011241FBEF9
S1130090CFEFD0E1DEBFCDBF1ED0A3C0B1CF4FEFB5
S11300A09C01429FC001439F900D11249C013695F1
S11300B0279536952795ABE7B4E184D09695879537
S11300C0089587B3806887BB88B38F7788BB81E640
S11300D085BD14BC0895F5DF80E090E0E0DF83BDCA
S11300E02FEF8FEF99E5215080409040E1F700C059
S11300F000008AE090E0D3DF83BD2FEF8FEF99E516
S1130100215080409040E1F700C0000084E190E07D
S1130110C6DF83BD2FEF8FEF99E5215080409040DB
S1130120E1F700C000008EE190E0B9DF83BD2FEF5E
S11301308FEF99E5215080409040E1F700C0000026
S113014082E390E0ACDF83BD2FEF8FEF99E5215080
S113015080409040E1F700C0000086E490E09FDF1B
S113016083BD2FEF8FEF99E5215080409040E1F758
S113017000C0000080E590E092DF83BD2FEF8FEF99
S113018099E5215080409040E1F700C000008AE5E5
S113019090E085DF83BD2FEF8FEF99E521508040FC
S11301A09040E1F700C0000084E690E078DF83BD72
S11301B02FEF8FEF99E5215080409040E1F700C088
S11301C000008ACFA29FB001B39FC001A39F700D0E
S11301D0811D1124911DB29F700D811D1124911D4B
S10901E00895F894FFCF1E
S9030000FC
