:1000000045C000004BC0000049C0000047C00000D0
:1000100045C0000043C0000041C000003FC00000D8
:100020003DC000003BC0000039C0000037C00000E8
:1000300035C0000033C0000031C000002FC00000F8
:100040002DC000002BC0000029C0000027C0000008
:1000500025C0000023C0000021C000001FC0000018
:100060001DC000001BC0000019C0000017C0000028
:1000700015C0000013C0000011C000000FC0000038
:100080000DC000000BC0000009C0000011241FBEFD
:10009000CFEFD0E1DEBFCDBF38D049C0B1CF8FEFB9
:1000A00087BB82B9089581110BC018BA2FEF8FE773
:1000B00094E0215080409040E1F700C00000089596
:1000C0008FEF88BB2FEF8FE794E021508040904066
:1000D000E1F700C00000089581110BC013B82FEFA5
:1000E0008FE794E0215080409040E1F700C000008D
:1000F00008958FEF83B92FEF8FE794E02150804070
:100100009040E1F700C000000895C9DF81E0CBDF37
:1001100080E0C9DF81E0C7DF80E0C5DF81E0DCDFB0
:1001200080E0DADF81E0D8DF80E0D6DFEFCFF8943F
:02013000FFCFFF
:00000001FF
