S013000054454D505F544F5F46414E2E73726563A5
S113000045C0000060C000005EC000005CC000008D
S11300105AC0000058C0000056C0000054C0000080
S113002052C0000050C000004EC000004CC0000090
S11300304AC0000048C0000046C0000044C00000A0
S113004042C0000040C000003EC000003CC00000B0
S11300503AC0000038C0000036C0000034C00000C0
S113006032C0000030C000002EC000002CC00000D0
S11300702AC0000028C0000026C0000024C00000E0
S113008022C0000020C000001EC0000011241FBEBA
S1130090CFEFD0E1DEBFCDBF11E0A0E0B1E0E8E5F5
S11300A0F9E000E00BBF02C007900D92A831B10740
S11300B0D9F721E0A8E1B1E001C01D92A735B2074C
S11300C0E1F77CD247C49CCFE1E6F0E08081826016
S11300D080830895E1E6F0E080818D7F8083089538
S11300E0E1E6F0E08081816080830895E2E6F0E05B
S11300F08081826080830895E2E6F0E080818D7FD4
S11301008083089580B18695817090E00895E2E639
S1130110F0E08081816080830895E2E6F0E08081F0
S11301208E7F80830895E2DFF8DF00000000EFDFB8
S113013000000000E1DF00000000EFDF000000002D
S1130140E6DF00000000D2DF00000000E6CF0895E3
S1130150CF93CCDFE2DFC0E003C0D9DFDEDFCF5FC7
S1130160C930D8F3E0DFCF910895AEDFB9DFF0CF27
S11301700895CF93DF93D82FA7DFC0E80BC08C2F4F
S11301808D2311F0B3DF01C0B7DFC1DF0000000031
S1130190C4DFC695C111F3CFA9DF9CDF00000000C6
S11301A0B6DFB0DFC82FB9DF8FDF8C2FDF91CF919F
S11301B008951F93CF93DF93182F8CDF97DF0000F0
S11301C00000D0E0C0E80BC0A2DF000000009ADF0E
S11301D0892B09F0DC2BA1DF00000000C695C111BA
S11301E0F3CF72DF112311F087DF01C07FDF8FDFD0
S11301F00000000092DF0000000078DF8D2FDF9107
S1130200CF911F910895CF92DF92EF92FF920F93B7
S11302101F93CF93DF936C017B01C42F84DFCC2326
S113022019F0C13031F00AC083E0A3DFC82FD0E059
S113023007C085E09EDFC82FD0E002C0C0E0D0E058
S1130240209711F08C2F19C045DF5CDF892BE9F76B
S113025041DF81E0AEDF082F10E081E0AADF102F3C
S11302600027080F111DF6011183008380E0A1DF30
S113027090E0F701918380838C2FDF91CF911F91C0
S11302800F91FF90EF90DF90CF9008954F925F927F
S11302906F927F928F929F92AF92BF92CF92DF9292
S11302A0EF92FF92CF93DF9300D000D0CDB7DEB7AB
S11302B05B01BC0180E090E025D26B017C01B501BB
S11302C080E090E01FD22AE037ED43E25CE3D0D235
S11302D020E030E040E252E480D120E030E040EA27
S11302E050E47BD14B015C0122EA37EE4BE356EB41
S11302F0C701B601BDD29B01AC01C701B601B8D29A
S11303002B013C0124E533EE45E25DE3C701B60170
S1130310AFD29B01AC01C301B20160D120E030E057
S113032040E850E45AD169837A838B839C8320E02C
S113033030E048EC51E4C501B4014FD12B013C013C
S11303402CEA35EC47EA58E3C701B60191D22AE01A
S113035037ED43E25CE342D19B01AC01C301B2013E
S113036087D29B01AC0169817A818B819C8136D1D2
S11303706B017C0120E030E048EC52E475D21816A1
S113038044F40F2EC12CD12CF8ECEF2EF2E4FF2E06
S1130390F02D2DEC3CEC4CEC5DE3C701B60182D1B1
S11303A088234CF40F2EFDECCF2EFCECDF2EED2C2D
S11303B0FDE3FF2EF02D20E030E040E251E4C501E2
S11303C0B40156D273D1709325016093240120E0C7
S11303D030E040E251E4C701B6014AD267D17093DC
S11303E04F0160934E010F900F900F900F90DF918B
S11303F0CF91FF90EF90DF90CF90BF90AF909F9000
S11304008F907F906F905F904F90089580935401E8
S1130410109253011092520141E065E571E082E2CD
S113042091E0F1DE2091520130915301280F311DEA
S1130430309353012093520140E065E571E080E57B
S113044091E0E1DE2091520130915301A901480F5E
S1130450511DCA015093530140935201892B11F04D
S113046077DE09C0609150017091510180912201A1
S1130470909123010BDF80915401813029F4809104
S11304804E0190914F010895811105C0809124017E
S113049090912501089580E090E008950F931F93B3
S11304A0CF93DF93AC01CCE1D1E088E08D8380E190
S11304B08C838A01169507951695079516950795C9
S11304C09801A5ECB0E237D2FC01F295E295EF7009
S11304D0EF27FF70EF27EB8328EE33E0E29FC001A4
S11304E0E39F900DF29F900D1124481B590B8A0134
S11304F016950795169507959801ABE7B4E11BD2BD
S1130500FC01F695E795EA8324E62E9FC0012F9F10
S1130510900D1124481B590B9A01ADECBCEC0BD285
S1130520FC01F695E795F695E795F695E795E98349
S1130530CF01880F991FEE0FFF1FEE0FFF1FEE0F65
S1130540FF1FE80FF91F4E1B5F0B4883DF91CF910C
S11305501F910F91089520E015C0822F90E0FC01B7
S1130560E050FF4F308138BBFC01E45EFE4FE08178
S1130570F0E0EA5FFE4F808183B983E39BE2019759
S1130580F1F72F5F263048F3089520911801309138
S11305901901F901EE0FFF1FEA5DFE4F918380837D
S11305A02F5F3F4F309319012093180124313105F7
S11305B020F010921901109218010895D6DD80E000
S11305C025DF90931B0180931A0168DF80911A0143
S11305D090911B01DADFBFDFF2CF5058BB27AA2767
S11305E00ED008C1F9D030F0FED020F031F49F3F96
S11305F011F41EF4EEC00EF4E095E7FBE4C0E92F1D
S11306000AD180F3BA17620773078407950718F0B5
S113061071F49EF522C10EF4E0950B2EBA2FA02D95
S11306200B01B90190010C01CA01A0011124FF279B
S1130630591B99F0593F50F4503E68F11A16F04096
S1130640A22F232F342F4427585FF3CF4695379595
S11306502795A795F0405395C9F77EF41F16BA0B5A
S1130660620B730B840BBAF09150A1F0FF0FBB1F08
S1130670661F771F881FC2F70EC0BA0F621F731F51
S1130680841F48F4879577956795B795F7959E3FAE
S113069008F0B3CF9395880F08F09927EE0F97953C
S11306A0879508956CD008F481E00895BCD088F053
S11306B09F5790F0B92F9927B751A0F0D1F0660F4A
S11306C0771F881F991F1AF0BA95C9F712C0B13065
S11306D081F0C3D0B1E00895C0C0672F782F882778
S11306E0B85F39F0B93FCCF3869577956795B395A4
S11306F0D9F73EF490958095709561957F4F8F4F13
S11307009F4F0895E89409C097FB3EF49095809517
S1130710709561957F4F8F4F9F4F9923A9F0F92FC3
S113072096E9BB279395F695879577956795B79541
S1130730F111F8CFFAF4BB0F11F460FF1BC06F5F27
S11307407F4F8F4F9F4F16C0882311F096E911C039
S1130750772321F09EE8872F762F05C0662371F05A
S113076096E8862F70E060E02AF09A95660F771F6E
S1130770881FDAF7880F9695879597F90895990F4A
S11307800008550FAA0BE0E8FEEF16161706E80757
S1130790F907C0F012161306E407F50798F0621B78
S11307A0730B840B950B39F40A2661F0232B242B4D
S11307B0252B21F408950A2609F4A140A6958FEF6C
S11307C0811D811D089597F99F6780E870E060E0BE
S11307D008959FEF80EC089500240A9416161706D6
S11307E018060906089500240A941216130614061E
S11307F005060895092E0394000C11F4882352F081
S1130800BB0F40F4BF2B11F460FF04C06F5F7F4F38
S11308108F4F9F4F089557FD9058440F551F59F01F
S11308205F3F71F04795880F97FB991F61F09F3FD9
S113083079F087950895121613061406551FF2CF02
S11308404695F1DF08C0161617061806991FF1CF52
S113085086957105610508940895E894BB27662779
S11308607727CB0197F908958ADF08F48FEF08956D
S11308700BD0C0CFB1DF28F0B6DF18F0952309F014
S1130880A2CFA7CF1124EACFC6DFA0F3959FD1F35F
S1130890950F50E0551F629FF001729FBB27F00D2A
S11308A0B11D639FAA27F00DB11DAA1F649F66277F
S11308B0B00DA11D661F829F2227B00DA11D621FCE
S11308C0739FB00DA11D621F839FA00D611D221F88
S11308D0749F3327A00D611D231F849F600D211D6C
S11308E0822F762F6A2F11249F5750408AF0E1F00F
S11308F088234AF0EE0FFF1FBB1F661F771F881F58
S113090091505040A9F79E3F510570F05CCFA6CF9F
S11309105F3FECF3983EDCF3869577956795B79542
S1130920F795E7959F5FC1F7FE2B880F911D96956C
S1130930879597F90895A29FB001B39FC001A39F23
S1130940700D811D1124911DB29F700D811D112404
S10B0950911D0895F894FFCFF6
S1130958FEFDFBF7EFDF3F065B4F666D7D277F6F7C
S10B0968777C585E4049400011
S9030000FC
