:1000000045C000006FC000005EC000005CC0000082
:100010005AC0000058C0000056C0000054C0000084
:1000200052C0000050C000004EC000004CC0000094
:100030004AC0000048C0000046C0000044C00000A4
:1000400043C0000040C000003EC000003CC00000B3
:100050003AC0000038C0000036C0000034C00000C4
:1000600032C0000030C000002EC000002CC00000D4
:100070002AC0000028C0000026C0000024C00000E4
:1000800022C0000020C000001EC0000011241FBEBE
:10009000CFEFD0E1DEBFCDBF11E0A0E0B1E0EAE9F3
:1000A000F3E000E00BBF02C007900D92A831B1074A
:1000B000D9F721E0A8E1B1E001C01D92A932B20751
:1000C000E1F744D168C19CCF1F920F920FB60F92F7
:1000D0001124F89410921E0178940F900FBE0F9087
:1000E0001F9018951F920F920FB60F9211240BB606
:1000F0000F922F933F938F939F93EF93FF93F894D7
:1001000082B780931F0112BE789480911E018130C6
:1001100051F018F08230E1F06FC081E080931E0151
:1001200010921F0169C080911F018F3A70F0809179
:100130001F01893D50F482E080931E0110921F013F
:10014000109222011092230157C010921E0154C038
:100150008091230186958093230180911F018D302A
:1001600050F080911F01843130F4809123018F770A
:100170008093230110C080911F018C3150F0809139
:100180001F01863230F4809123018068809323011F
:1001900002C010921E0110921F01809122018F5FF8
:1001A0008093220180912201877069F4E0912201FD
:1001B000E695E695E695F0E080912301ED5DFE4F32
:1001C000808310922301809122018032A9F4E4E21D
:1001D000F1E0828190E0809590959927238130E02D
:1001E0008217930729F410921E011092220104C075
:1001F00010921E01109222017894FF91EF919F912D
:100200008F913F912F910F900BBE0F900FBE0F90CB
:100210001F901895809126010895EAE6F0E080810C
:10022000826080838AB78ABF89B7816089BF88B7B7
:10023000816088BF089587E083BF81E087BF08950C
:1002400011BAF9DFEACF08958FEF809361008ABB7E
:10025000089587B3806887BB88B38F7788BB81E6B2
:1002600085BD1DBC1CBC08954FEF9C01429FC00181
:10027000439F900D11249C0136952795369527951F
:10028000ABE7B4E179D0969587950895863149F02A
:1002900018F48C3059F019C0883169F08E3581F02E
:1002A00014C080E090E0E0DF83BD089586E490E034
:1002B000DBDF83BD089580E590E0D6DF83BD089540
:1002C00084E690E0D1DF83BD089580E090E0CCDF4C
:1002D00083BD089580E018C0282F30E0F901E05078
:1002E000FF4F908190936200F901E85EFE4FE0813C
:1002F000F0E0EA5FFE4F90819BBBEFEFFFE83197A4
:10030000F1F700C000008F5F823030F3089586312E
:1003100049F018F48C3059F00895883169F08E3521
:1003200081F0089580E090E09FDF83BD089586E42A
:1003300090E09ADF83BD089580E590E095DF83BD6E
:10034000089584E690E090DF83BD08957DDF78DF37
:1003500080DF78945FDF80932101E8E1F1E0982F5E
:1003600092959F709183982F9F7090838FDFB2DF5B
:1003700080912101CCDFEECFA29FB001B39FC001DD
:10038000A39F700D811D1124911DB29F700D811DC1
:0A0390001124911D0895F894FFCF89
:10039A00FEFDFBF7EFDF3F065B4F666D7D277F6F44
:0803AA00777C585E40494000D9
:00000001FF
