S015000043697263756C617251756575652E73726563D5
S113000045C0000060C000005EC000005CC000008D
S11300105AC0000058C0000056C0000054C0000080
S113002052C0000050C000004EC000004CC0000090
S11300304AC0000048C0000046C0000044C00000A0
S113004042C0000040C000003EC000003CC00000B0
S11300503AC0000038C0000036C0000034C00000C0
S113006032C0000030C000002EC000002CC00000D0
S11300702AC0000028C0000026C0000024C00000E0
S113008022C0000020C000001EC0000011241FBEBA
S1130090CFEFD0E1DEBFCDBF11E0A0E0B1E0E2EAF6
S11300A0F2E000E00BBF02C007900D92AA31B10745
S11300B0D9F721E0AAE1B1E001C01D92AD34B20745
S11300C0E1F7C9D0ECC09CCF837087B983EC86B9C3
S11300D080E791E00197F1F700C0349BFECF84B133
S11300E095B108950F931F93CF93DF93AC01CDE1A6
S11300F0D1E088E08D8380E18C838A011695079591
S113010016950795169507959801A5ECB0E2B8D019
S1130110FC01F295E295EF70EF27FF70EF27EB8378
S113012028EE33E0E29FC001E39F900DF29F900D13
S11301301124481B590B8A011695079516950795A6
S11301409801ABE7B4E19CD0FC01F695E795EA830E
S113015024E62E9FC0012F9F900D1124481B590B9C
S11301609A01ADECBCEC8CD0FC01F695E795F695C4
S1130170E795F695E795E983CF01880F991FEE0F70
S1130180FF1FEE0FFF1FEE0FFF1FE80FF91F4E1B9F
S11301905F0B4883DF91CF911F910F91089520E069
S11301A015C0822F90E0FC01EE5FFE4F308138BB1A
S11301B0FC01E35EFE4FE081F0E0E85FFE4F8081EA
S11301C083B983E39BE20197F1F72F5F263048F36D
S11301D0089520911A01E22FF0E0EE0FFF1FED5D6C
S11301E0FE4F918380832F5F20931A01243110F0F6
S11301F010921A01089580E090E020E030E00AC0F7
S1130200FC01EE0FFF1FED5DFE4F40815181240F75
S1130210351F0196843191059CF3ADECBCEC30D0D4
S1130220929582958F7089279F70892708952091D0
S11302300001309101012817390718F48FEF85BBAD
S1130240089515BA08958FEF87BB82B990EF909304
S1130250610084BB0895F7DF80E036DF90931C01D2
S113026080931B01B6DFC7DF90934C0180934B0151
S113027039DF95DF80911B0190911C01D8DFECCF11
S1130280A29FB001B39FC001A39F700D811D1124D3
S1130290911DB29F700D811D1124911D0895F89434
S10502A0FFCF8A
S11302A22800FEFDFBF7EFDF3F065B4F666D7D27FF
S10D02B27F6F777C585E40494000DE
S9030000FC
