:1000000045C0000060C000005EC000005CC0000091
:100010005AC0000058C0000056C0000054C0000084
:1000200052C0000050C000004EC000004CC0000094
:100030004AC0000048C0000046C0000044C00000A4
:1000400042C0000040C000003EC000003CC00000B4
:100050003AC0000038C0000036C0000034C00000C4
:1000600032C0000030C000002EC000002CC00000D4
:100070002AC0000028C0000026C0000024C00000E4
:1000800022C0000020C000001EC0000011241FBEBE
:10009000CFEFD0E1DEBFCDBF11E0A0E0B1E0E2E202
:1000A000F2E000E00BBF02C007900D92AA31B10749
:1000B000D9F721E0AAE1B1E001C01D92A032B20758
:1000C000E1F775D0ACC09CCF8FEF87BB82B914BA73
:1000D00011BA089583B390E080959095982F882762
:1000E00020B330E020953095822B8038910509F4BB
:1000F00048C0C8F488309105E1F158F48230910588
:1001000009F453C08430910591F1019709F04BC077
:100110002CC08032910589F18034910581F140979E
:1001200009F041C028C0811528E0920791F160F4E0
:10013000811522E0920749F1811524E0920739F1F7
:100140008115914081F51FC0811520E2920729F1A8
:1001500020F481159041F9F026C0811520E4920722
:10016000F1F081159048E9F01EC081E0089583E028
:1001700008958AE0089584E0089585E0089586E072
:1001800008958BE0089587E0089588E0089589E058
:1001900008958CE008958EE0089580E008958FE042
:1001A00008958DE0089580E1089582E008958CDF40
:1001B00091DF80930101909100018917B1F0809344
:1001C0000001803169F411C0292F30E0F901E75EA8
:1001D000FE4F4081F901E65EFE4F4083915001C021
:1001E00095E09111F1CF80931A0120E015C0822F84
:1001F00090E0FC01EE5FFE4F308138BBFC01E65E13
:10020000FE4FE081F0E0E85FFE4F808183B983E339
:100210009BE20197F1F72F5F263048F3C9CFF8949E
:02022000FFCF0E
:100222001010FEFDFBF7EFDF3F065B4F666D7D278B
:0A0232007F6F777C585E404908009A
:00000001FF
