:1000000045C0000060C000005EC000005CC0000091
:100010005AC0000058C0000056C0000054C0000084
:1000200052C0000050C000004EC000004CC0000094
:100030004AC0000048C0000046C0000044C00000A4
:1000400043C0000040C000003EC000003CC00000B3
:100050003AC0000038C0000036C0000034C00000C4
:1000600032C0000030C000002EC000002CC00000D4
:100070002AC0000028C0000026C0000024C00000E4
:1000800022C0000020C000001EC0000011241FBEBE
:10009000CFEFD0E1DEBFCDBF11E0A0E0B1E0E0E204
:1000A000F2E000E00BBF02C007900D92A831B1074B
:1000B000D9F721E0A8E1B1E001C01D92A332B20757
:1000C000E1F789D0ABC09CCF1F920F920FB60F9271
:1000D00011248F93809119018F5F809319018436C9
:1000E000A0F01092190180911A018F5F80931A017C
:1000F0008C3358F010921A0180911B018F5F80930E
:100100001B018C3310F010921B018FE682BF8F9180
:100110000F900FBE0F901F90189587E083BF81E06E
:1001200087BF86BF8FE682BF089520911B01ECE157
:10013000F1E08DEC289F912D11249695969596953A
:100140009583990F392F330F330F930F291B248376
:1001500020911A01289F912D112496959695969598
:100160009383990F392F330F330F930F291B22835A
:1001700090911901989F812D1124869586958695D9
:100180008183880F282F220F220F820F981B9083C4
:10019000089520E015C0822F90E0FC01E050FF4F51
:1001A000308138BBFC01E45EFE4FE081F0E0EA5FA5
:1001B000FE4F808183B983E39BE20197F1F72F5FC4
:1001C000263048F308958FEF87BB82B980EF809384
:1001D00061001ABA0895F7DFA0DF89B38095809394
:1001E0002201813019F0803181F015C08091180111
:1001F000811105C0789481E0809318010CC0813092
:1002000051F4F8941092180106C010921B0110923C
:100210001A011092190189DFBCDFDFCFF894FFCFFC
:10022000FEFDFBF7EFDF3F065B4F666D7D277F6FBF
:08023000777C585E4049400054
:00000001FF
