:1000000045C0000095C00000E6C0000037C10000F8
:1000100081C1000058C0000056C0000054C000005C
:1000200052C0000050C000004EC000004CC0000094
:100030004AC0000048C0000046C0000044C00000A4
:1000400042C0000040C000003EC000003CC00000B4
:100050003AC0000038C0000036C0000034C00000C4
:1000600032C0000030C000002EC000002CC00000D4
:100070002AC0000028C0000026C0000024C00000E4
:1000800022C0000020C000001EC0000011241FBEBE
:10009000CFEFD0E1DEBFCDBF11E0A0E0B1E0E8E7F7
:1000A000F4E000E00BBF02C007900D92AC31B10745
:1000B000D9F721E0ACE1B1E001C01D92A232B20754
:1000C000E1F78ED1D7C19CCF8FEF87BB82B911BA30
:1000D0008FE089BF9AEA90936A0095E59ABF88BF3E
:1000E00078940895CF93DF9320EA36E841E050E01A
:1000F00083D1CCE1D1E02D8320E137E240E050E034
:100100007BD12C8328EE33E040E050E075D12B8387
:1001100024E630E040E050E06FD12A832AE030E06E
:1001200040E050E069D129836883DF91CF91089541
:100130001F920F920FB60F9211240BB60F922F93AE
:100140003F934F935F936F937F938F939F93AF935F
:10015000BF93EF93FF938091000190910101A091D3
:100160000201B09103010A96A11DB11D8093000107
:1001700090930101A0930201B09303018034924453
:10018000AF40B10564F08FE392E4AFE0B0E080935C
:10019000000190930101A0930201B09303016091CB
:1001A00000017091010180910201909103019ADF99
:1001B000FF91EF91BF91AF919F918F917F916F913F
:1001C0005F914F913F912F910F900BBE0F900FBEFB
:1001D0000F901F9018951F920F920FB60F92112437
:1001E0000BB60F922F933F934F935F936F937F9331
:1001F0008F939F93AF93BF93EF93FF9380910001F1
:1002000090910101A0910201B09103010196A11DFD
:10021000B11D8093000190930101A0930201B0935E
:10022000030180349244AF40B10564F08FE392E45F
:10023000AFE0B0E08093000190930101A093020130
:10024000B09303016091000170910101809102015E
:100250009091030147DFFF91EF91BF91AF919F9183
:100260008F917F916F915F914F913F912F910F905F
:100270000BBE0F900FBE0F901F9018951F920F92FC
:100280000FB60F9211240BB60F922F933F934F93FB
:100290005F936F937F938F939F93AF93BF93EF93EE
:1002A000FF938091000190910101A0910201B09112
:1002B00003010197A109B109809300019093010105
:1002C000A0930201B0930301BB2344F410920001F8
:1002D000109201011092020110920301609100013D
:1002E000709101018091020190910301FBDEFF9169
:1002F000EF91BF91AF919F918F917F916F915F919E
:100300004F913F912F910F900BBE0F900FBE0F900A
:100310001F9018951F920F920FB60F9211240BB6D3
:100320000F922F933F934F935F936F937F938F938E
:100330009F93AF93BF93EF93FF93809100019091B0
:100340000101A0910201B09103010A97A109B1092D
:100350008093000190930101A0930201B0930301E7
:10036000BB2344F41092000110920101109202018B
:1003700010920301609100017091010180910201CE
:1003800090910301AFDEFF91EF91BF91AF919F91EB
:100390008F917F916F915F914F913F912F910F902E
:1003A0000BBE0F900FBE0F901F90189520E015C048
:1003B000822F90E0FC01EC5FFE4F308138BBFC01E6
:1003C000E45EFE4FE081F0E0E65FFE4F808183B99E
:1003D00083E39BE20197F1F72F5F263048F30895FE
:1003E00073DE609100017091010180910201909192
:1003F000030178DEDBDFFECF052E97FB16F40094B9
:100400000FD057FD05D014D007FC02D046F408C029
:1004100050954095309521953F4F4F4F5F4F089530
:1004200090958095709561957F4F8F4F9F4F089560
:10043000A1E21A2EAA1BBB1BFD010DC0AA1FBB1FE8
:10044000EE1FFF1FA217B307E407F50720F0A21B5A
:10045000B30BE40BF50B661F771F881F991F1A94C7
:1004600069F760957095809590959B01AC01BD01F1
:08047000CF010895F894FFCFBD
:1004780040E20100FEFDFBF7EFDF3F065B4F666DD4
:0C0488007D277F6F777C585E7971000043
:00000001FF
