:1000000045C0000060C000005EC000005CC0000091
:100010005AC0000058C0000056C0000054C0000084
:1000200052C0000050C000004EC000004CC0000094
:100030004AC0000048C0000046C0000044C00000A4
:1000400042C0000040C000003EC000003CC00000B4
:100050003AC0000038C0000036C0000034C00000C4
:1000600032C0000030C000002EC000002CC00000D4
:100070002AC0000028C0000026C0000024C00000E4
:1000800022C0000020C000001EC0000011241FBEBE
:10009000CFEFD0E1DEBFCDBF11E0A0E0B1E0E0E8FE
:1000A000F2E000E00BBF02C007900D92A831B1074B
:1000B000D9F721E0A8E1B1E001C01D92A232B20758
:1000C000E1F797D0DBC09CCF837087B983EC86B90A
:1000D00080E791E00197F1F700C0349BFECF84B137
:1000E00095B10895BC016151710985E595E190D004
:1000F000CB01029708950F931F93CF93DF93AC0129
:10010000CCE1D1E088E08D8380E18C838A01169573
:10011000079516950795169507959801A5ECB0E2F9
:100120008AD0FC01F295E295EF70EF27FF70EF2780
:10013000EB8328EE33E0E29FC001E39F900DF29F36
:10014000900D1124481B590B8A0116950795169599
:1001500007959801ABE7B4E16ED0FC01F695E79501
:10016000EA8324E62E9FC0012F9F900D1124481B87
:10017000590B9A01ADECBCEC5ED0FC01F695E7950D
:10018000F695E795F695E795E983CF01880F991FD6
:10019000EE0FFF1FEE0FFF1FEE0FFF1FE80FF91FFF
:1001A0004E1B5F0B4883DF91CF911F910F910895F4
:1001B00020E015C0822F90E0FC01E050FF4F30811D
:1001C00038BBFC01E45EFE4FE081F0E0EA5FFE4FE9
:1001D000808183B983E39BE20197F1F72F5F26309B
:1001E00048F308958FEF87BB82B980EF8093610059
:1001F0000895F8DF80E068DF90931B0180931A0177
:1002000071DF909319018093180175DFD1DFF2CF70
:1002100097FB072E16F4009406D077FD08D01AD06D
:1002200007FC05D03EF4909581959F4F08957095F9
:1002300061957F4F0895A29FB001B39FC001A39F16
:10024000700D811D1124911DB29F700D811D11240F
:10025000911D0895AA1BBB1B51E107C0AA1FBB1F1C
:10026000A617B70710F0A61BB70B881F991F5A9542
:10027000A9F780959095BC01CD010895F894FFCF22
:10028000FEFDFBF7EFDF3F065B4F666D7D277F6F5F
:08029000777C585E40494000F4
:00000001FF
